{
  "contractName": "ListingFactory",
  "abi": [
    {
      "inputs": [],
      "stateMutability": "nonpayable",
      "type": "constructor"
    },
    {
      "anonymous": false,
      "inputs": [
        {
          "indexed": false,
          "internalType": "address",
          "name": "listing",
          "type": "address"
        },
        {
          "indexed": false,
          "internalType": "address",
          "name": "seller",
          "type": "address"
        },
        {
          "indexed": false,
          "internalType": "uint256",
          "name": "price",
          "type": "uint256"
        },
        {
          "indexed": false,
          "internalType": "string",
          "name": "title",
          "type": "string"
        },
        {
          "indexed": false,
          "internalType": "string",
          "name": "author",
          "type": "string"
        }
      ],
      "name": "ListedBook",
      "type": "event"
    },
    {
      "inputs": [
        {
          "internalType": "uint256",
          "name": "",
          "type": "uint256"
        }
      ],
      "name": "listed",
      "outputs": [
        {
          "internalType": "contract Listing",
          "name": "",
          "type": "address"
        }
      ],
      "stateMutability": "view",
      "type": "function",
      "constant": true
    },
    {
      "inputs": [
        {
          "internalType": "address",
          "name": "",
          "type": "address"
        },
        {
          "internalType": "uint256",
          "name": "",
          "type": "uint256"
        }
      ],
      "name": "sellerToListings",
      "outputs": [
        {
          "internalType": "contract Listing",
          "name": "",
          "type": "address"
        }
      ],
      "stateMutability": "view",
      "type": "function",
      "constant": true
    },
    {
      "inputs": [
        {
          "internalType": "uint256",
          "name": "_price",
          "type": "uint256"
        },
        {
          "internalType": "string",
          "name": "_title",
          "type": "string"
        },
        {
          "internalType": "string",
          "name": "_author",
          "type": "string"
        },
        {
          "internalType": "string",
          "name": "_isbn",
          "type": "string"
        },
        {
          "internalType": "string",
          "name": "_description",
          "type": "string"
        },
        {
          "internalType": "uint8",
          "name": "_condition",
          "type": "uint8"
        }
      ],
      "name": "listBook",
      "outputs": [],
      "stateMutability": "nonpayable",
      "type": "function"
    }
  ],
  "bytecode": "0x608060405234801561001057600080fd5b50612be5806100206000396000f3fe60806040523480156200001157600080fd5b5060043610620000465760003560e01c806304c31251146200004b57806327f910ba146200008157806391c7ca9a14620000b7575b600080fd5b6200006960048036038101906200006391906200035b565b620000d7565b60405162000078919062000418565b60405180910390f35b6200009f60048036038101906200009991906200047a565b62000117565b604051620000ae919062000418565b60405180910390f35b620000d56004803603810190620000cf919062000661565b62000166565b005b60008181548110620000e857600080fd5b906000526020600020016000915054906101000a900473ffffffffffffffffffffffffffffffffffffffff1681565b600160205281600052604060002081815481106200013457600080fd5b906000526020600020016000915091509054906101000a900473ffffffffffffffffffffffffffffffffffffffff1681565b600030338888888888886040516200017e90620002fe565b6200019198979695949392919062000878565b604051809103906000f080158015620001ae573d6000803e3d6000fd5b5090506000819080600181540180825580915050600190039060005260206000200160009091909190916101000a81548173ffffffffffffffffffffffffffffffffffffffff021916908373ffffffffffffffffffffffffffffffffffffffff160217905550600160003373ffffffffffffffffffffffffffffffffffffffff1673ffffffffffffffffffffffffffffffffffffffff168152602001908152602001600020819080600181540180825580915050600190039060005260206000200160009091909190916101000a81548173ffffffffffffffffffffffffffffffffffffffff021916908373ffffffffffffffffffffffffffffffffffffffff1602179055507fd8a98d0cbd6dc99ca3c859335a70e5eb8af7c25afa4cbf0d0fd657f8bdb1f6de8133898989604051620002ed95949392919062000933565b60405180910390a150505050505050565b612211806200099f83390190565b6000604051905090565b600080fd5b600080fd5b6000819050919050565b620003358162000320565b81146200034157600080fd5b50565b60008135905062000355816200032a565b92915050565b60006020828403121562000374576200037362000316565b5b6000620003848482850162000344565b91505092915050565b600073ffffffffffffffffffffffffffffffffffffffff82169050919050565b6000819050919050565b6000620003d8620003d2620003cc846200038d565b620003ad565b6200038d565b9050919050565b6000620003ec82620003b7565b9050919050565b60006200040082620003df565b9050919050565b6200041281620003f3565b82525050565b60006020820190506200042f600083018462000407565b92915050565b600062000442826200038d565b9050919050565b620004548162000435565b81146200046057600080fd5b50565b600081359050620004748162000449565b92915050565b6000806040838503121562000494576200049362000316565b5b6000620004a48582860162000463565b9250506020620004b78582860162000344565b9150509250929050565b600080fd5b600080fd5b6000601f19601f8301169050919050565b7f4e487b7100000000000000000000000000000000000000000000000000000000600052604160045260246000fd5b6200051682620004cb565b810181811067ffffffffffffffff82111715620005385762000537620004dc565b5b80604052505050565b60006200054d6200030c565b90506200055b82826200050b565b919050565b600067ffffffffffffffff8211156200057e576200057d620004dc565b5b6200058982620004cb565b9050602081019050919050565b82818337600083830152505050565b6000620005bc620005b68462000560565b62000541565b905082815260208101848484011115620005db57620005da620004c6565b5b620005e884828562000596565b509392505050565b600082601f830112620006085762000607620004c1565b5b81356200061a848260208601620005a5565b91505092915050565b600060ff82169050919050565b6200063b8162000623565b81146200064757600080fd5b50565b6000813590506200065b8162000630565b92915050565b60008060008060008060c0878903121562000681576200068062000316565b5b60006200069189828a0162000344565b965050602087013567ffffffffffffffff811115620006b557620006b46200031b565b5b620006c389828a01620005f0565b955050604087013567ffffffffffffffff811115620006e757620006e66200031b565b5b620006f589828a01620005f0565b945050606087013567ffffffffffffffff8111156200071957620007186200031b565b5b6200072789828a01620005f0565b935050608087013567ffffffffffffffff8111156200074b576200074a6200031b565b5b6200075989828a01620005f0565b92505060a06200076c89828a016200064a565b9150509295509295509295565b60006200078682620003df565b9050919050565b620007988162000779565b82525050565b6000620007ab826200038d565b9050919050565b620007bd816200079e565b82525050565b620007ce8162000320565b82525050565b600081519050919050565b600082825260208201905092915050565b60005b8381101562000810578082015181840152602081019050620007f3565b8381111562000820576000848401525b50505050565b60006200083382620007d4565b6200083f8185620007df565b935062000851818560208601620007f0565b6200085c81620004cb565b840191505092915050565b620008728162000623565b82525050565b60006101008201905062000890600083018b6200078d565b6200089f602083018a620007b2565b620008ae6040830189620007c3565b8181036060830152620008c2818862000826565b90508181036080830152620008d8818762000826565b905081810360a0830152620008ee818662000826565b905081810360c083015262000904818562000826565b90506200091560e083018462000867565b9998505050505050505050565b6200092d8162000435565b82525050565b600060a0820190506200094a600083018862000922565b62000959602083018762000922565b620009686040830186620007c3565b81810360608301526200097c818562000826565b9050818103608083015262000992818462000826565b9050969550505050505056fe60806040523480156200001157600080fd5b50604051620022113803806200221183398181016040528101906200003791906200054b565b87600060016101000a81548173ffffffffffffffffffffffffffffffffffffffff021916908373ffffffffffffffffffffffffffffffffffffffff16021790555060008060006101000a81548160ff02191690836004811115620000a0576200009f62000690565b5b021790555086600160006101000a81548173ffffffffffffffffffffffffffffffffffffffff021916908373ffffffffffffffffffffffffffffffffffffffff160217905550856002819055506040518060a001604052808681526020018581526020018481526020018381526020018260ff168152506003600082015181600001908051906020019062000137929190620001c7565b50602082015181600101908051906020019062000156929190620001c7565b50604082015181600201908051906020019062000175929190620001c7565b50606082015181600301908051906020019062000194929190620001c7565b5060808201518160040160006101000a81548160ff021916908360ff160217905550905050505050505050505062000724565b828054620001d590620006ee565b90600052602060002090601f016020900481019282620001f9576000855562000245565b82601f106200021457805160ff191683800117855562000245565b8280016001018555821562000245579182015b828111156200024457825182559160200191906001019062000227565b5b50905062000254919062000258565b5090565b5b808211156200027357600081600090555060010162000259565b5090565b6000604051905090565b600080fd5b600080fd5b600073ffffffffffffffffffffffffffffffffffffffff82169050919050565b6000620002b8826200028b565b9050919050565b6000620002cc82620002ab565b9050919050565b620002de81620002bf565b8114620002ea57600080fd5b50565b600081519050620002fe81620002d3565b92915050565b600062000311826200028b565b9050919050565b620003238162000304565b81146200032f57600080fd5b50565b600081519050620003438162000318565b92915050565b6000819050919050565b6200035e8162000349565b81146200036a57600080fd5b50565b6000815190506200037e8162000353565b92915050565b600080fd5b600080fd5b6000601f19601f8301169050919050565b7f4e487b7100000000000000000000000000000000000000000000000000000000600052604160045260246000fd5b620003d9826200038e565b810181811067ffffffffffffffff82111715620003fb57620003fa6200039f565b5b80604052505050565b60006200041062000277565b90506200041e8282620003ce565b919050565b600067ffffffffffffffff8211156200044157620004406200039f565b5b6200044c826200038e565b9050602081019050919050565b60005b83811015620004795780820151818401526020810190506200045c565b8381111562000489576000848401525b50505050565b6000620004a6620004a08462000423565b62000404565b905082815260208101848484011115620004c557620004c462000389565b5b620004d284828562000459565b509392505050565b600082601f830112620004f257620004f162000384565b5b8151620005048482602086016200048f565b91505092915050565b600060ff82169050919050565b62000525816200050d565b81146200053157600080fd5b50565b60008151905062000545816200051a565b92915050565b600080600080600080600080610100898b0312156200056f576200056e62000281565b5b60006200057f8b828c01620002ed565b9850506020620005928b828c0162000332565b9750506040620005a58b828c016200036d565b965050606089015167ffffffffffffffff811115620005c957620005c862000286565b5b620005d78b828c01620004da565b955050608089015167ffffffffffffffff811115620005fb57620005fa62000286565b5b620006098b828c01620004da565b94505060a089015167ffffffffffffffff8111156200062d576200062c62000286565b5b6200063b8b828c01620004da565b93505060c089015167ffffffffffffffff8111156200065f576200065e62000286565b5b6200066d8b828c01620004da565b92505060e0620006808b828c0162000534565b9150509295985092959890939650565b7f4e487b7100000000000000000000000000000000000000000000000000000000600052602160045260246000fd5b7f4e487b7100000000000000000000000000000000000000000000000000000000600052602260045260246000fd5b600060028204905060018216806200070757607f821691505b602082108114156200071e576200071d620006bf565b5b50919050565b611add80620007346000396000f3fe6080604052600436106100dd5760003560e01c8063a035b1fe1161007f578063c45a015511610059578063c45a015514610231578063c86a32891461025c578063ea8a1af014610273578063f87f4a0a1461028a576100dd565b8063a035b1fe146101c4578063c19d93fb146101ef578063c23a601c1461021a576100dd565b80634dc415de116100bb5780634dc415de146101535780635aa103111461016a5780636b525776146101815780639e28229d14610198576100dd565b806305a8da72146100e257806308551a53146101115780633ccfd60b1461013c575b600080fd5b3480156100ee57600080fd5b506100f76102a6565b604051610108959493929190611379565b60405180910390f35b34801561011d57600080fd5b506101266104f7565b6040516101339190611429565b60405180910390f35b34801561014857600080fd5b5061015161051d565b005b34801561015f57600080fd5b506101686106b8565b005b34801561017657600080fd5b5061017f610896565b005b34801561018d57600080fd5b506101966109d0565b005b3480156101a457600080fd5b506101ad610b02565b6040516101bb929190611444565b60405180910390f35b3480156101d057600080fd5b506101d9610bbc565b6040516101e6919061148d565b60405180910390f35b3480156101fb57600080fd5b50610204610bc2565b604051610211919061151f565b60405180910390f35b34801561022657600080fd5b5061022f610bd3565b005b34801561023d57600080fd5b50610246610d05565b6040516102539190611599565b60405180910390f35b34801561026857600080fd5b50610271610d2b565b005b34801561027f57600080fd5b50610288610e65565b005b6102a4600480360381019061029f91906116fd565b611037565b005b60038060000180546102b790611775565b80601f01602080910402602001604051908101604052809291908181526020018280546102e390611775565b80156103305780601f1061030557610100808354040283529160200191610330565b820191906000526020600020905b81548152906001019060200180831161031357829003601f168201915b50505050509080600101805461034590611775565b80601f016020809104026020016040519081016040528092919081815260200182805461037190611775565b80156103be5780601f10610393576101008083540402835291602001916103be565b820191906000526020600020905b8154815290600101906020018083116103a157829003601f168201915b5050505050908060020180546103d390611775565b80601f01602080910402602001604051908101604052809291908181526020018280546103ff90611775565b801561044c5780601f106104215761010080835404028352916020019161044c565b820191906000526020600020905b81548152906001019060200180831161042f57829003601f168201915b50505050509080600301805461046190611775565b80601f016020809104026020016040519081016040528092919081815260200182805461048d90611775565b80156104da5780601f106104af576101008083540402835291602001916104da565b820191906000526020600020905b8154815290600101906020018083116104bd57829003601f168201915b5050505050908060040160009054906101000a900460ff16905085565b600160009054906101000a900473ffffffffffffffffffffffffffffffffffffffff1681565b6003806004811115610532576105316114a8565b5b60008054906101000a900460ff166004811115610552576105516114a8565b5b14610592576040517f08c379a00000000000000000000000000000000000000000000000000000000081526004016105899061183f565b60405180910390fd5b600160009054906101000a900473ffffffffffffffffffffffffffffffffffffffff1673ffffffffffffffffffffffffffffffffffffffff163373ffffffffffffffffffffffffffffffffffffffff1614610622576040517f08c379a0000000000000000000000000000000000000000000000000000000008152600401610619906118d1565b60405180910390fd5b60046000806101000a81548160ff02191690836004811115610647576106466114a8565b5b0217905550600160009054906101000a900473ffffffffffffffffffffffffffffffffffffffff1673ffffffffffffffffffffffffffffffffffffffff166108fc479081150290604051600060405180830381858888f193505050501580156106b4573d6000803e3d6000fd5b5050565b60028060048111156106cd576106cc6114a8565b5b60008054906101000a900460ff1660048111156106ed576106ec6114a8565b5b1461072d576040517f08c379a00000000000000000000000000000000000000000000000000000000081526004016107249061183f565b60405180910390fd5b600160009054906101000a900473ffffffffffffffffffffffffffffffffffffffff1673ffffffffffffffffffffffffffffffffffffffff163373ffffffffffffffffffffffffffffffffffffffff16146107bd576040517f08c379a00000000000000000000000000000000000000000000000000000000081526004016107b4906118d1565b60405180910390fd5b60008060006101000a81548160ff021916908360048111156107e2576107e16114a8565b5b02179055506107ef6111b3565b6040518060400160405280600073ffffffffffffffffffffffffffffffffffffffff16815260200160405180602001604052806000815250815250600860008201518160000160006101000a81548173ffffffffffffffffffffffffffffffffffffffff021916908373ffffffffffffffffffffffffffffffffffffffff160217905550602082015181600101908051906020019061088f929190611221565b5090505050565b60038060048111156108ab576108aa6114a8565b5b60008054906101000a900460ff1660048111156108cb576108ca6114a8565b5b1461090b576040517f08c379a00000000000000000000000000000000000000000000000000000000081526004016109029061183f565b60405180910390fd5b600160009054906101000a900473ffffffffffffffffffffffffffffffffffffffff1673ffffffffffffffffffffffffffffffffffffffff163373ffffffffffffffffffffffffffffffffffffffff161461099b576040517f08c379a0000000000000000000000000000000000000000000000000000000008152600401610992906118d1565b60405180910390fd5b60008060006101000a81548160ff021916908360048111156109c0576109bf6114a8565b5b02179055506109cd6111b3565b50565b60028060048111156109e5576109e46114a8565b5b60008054906101000a900460ff166004811115610a0557610a046114a8565b5b14610a45576040517f08c379a0000000000000000000000000000000000000000000000000000000008152600401610a3c9061183f565b60405180910390fd5b600160009054906101000a900473ffffffffffffffffffffffffffffffffffffffff1673ffffffffffffffffffffffffffffffffffffffff163373ffffffffffffffffffffffffffffffffffffffff1614610ad5576040517f08c379a0000000000000000000000000000000000000000000000000000000008152600401610acc906118d1565b60405180910390fd5b60036000806101000a81548160ff02191690836004811115610afa57610af96114a8565b5b021790555050565b60088060000160009054906101000a900473ffffffffffffffffffffffffffffffffffffffff1690806001018054610b3990611775565b80601f0160208091040260200160405190810160405280929190818152602001828054610b6590611775565b8015610bb25780601f10610b8757610100808354040283529160200191610bb2565b820191906000526020600020905b815481529060010190602001808311610b9557829003601f168201915b5050505050905082565b60025481565b60008054906101000a900460ff1681565b6000806004811115610be857610be76114a8565b5b60008054906101000a900460ff166004811115610c0857610c076114a8565b5b14610c48576040517f08c379a0000000000000000000000000000000000000000000000000000000008152600401610c3f9061183f565b60405180910390fd5b600160009054906101000a900473ffffffffffffffffffffffffffffffffffffffff1673ffffffffffffffffffffffffffffffffffffffff163373ffffffffffffffffffffffffffffffffffffffff1614610cd8576040517f08c379a0000000000000000000000000000000000000000000000000000000008152600401610ccf906118d1565b60405180910390fd5b60016000806101000a81548160ff02191690836004811115610cfd57610cfc6114a8565b5b021790555050565b600060019054906101000a900473ffffffffffffffffffffffffffffffffffffffff1681565b6002806004811115610d4057610d3f6114a8565b5b60008054906101000a900460ff166004811115610d6057610d5f6114a8565b5b14610da0576040517f08c379a0000000000000000000000000000000000000000000000000000000008152600401610d979061183f565b60405180910390fd5b600160009054906101000a900473ffffffffffffffffffffffffffffffffffffffff1673ffffffffffffffffffffffffffffffffffffffff163373ffffffffffffffffffffffffffffffffffffffff1614610e30576040517f08c379a0000000000000000000000000000000000000000000000000000000008152600401610e27906118d1565b60405180910390fd5b610e386106b8565b60016000806101000a81548160ff02191690836004811115610e5d57610e5c6114a8565b5b021790555050565b6002806004811115610e7a57610e796114a8565b5b60008054906101000a900460ff166004811115610e9a57610e996114a8565b5b14610eda576040517f08c379a0000000000000000000000000000000000000000000000000000000008152600401610ed19061183f565b60405180910390fd5b600860000160009054906101000a900473ffffffffffffffffffffffffffffffffffffffff1673ffffffffffffffffffffffffffffffffffffffff16600073ffffffffffffffffffffffffffffffffffffffff161415610f6f576040517f08c379a0000000000000000000000000000000000000000000000000000000008152600401610f6690611963565b60405180910390fd5b600860000160009054906101000a900473ffffffffffffffffffffffffffffffffffffffff1673ffffffffffffffffffffffffffffffffffffffff163373ffffffffffffffffffffffffffffffffffffffff1614611002576040517f08c379a0000000000000000000000000000000000000000000000000000000008152600401610ff9906119f5565b60405180910390fd5b60008060006101000a81548160ff02191690836004811115611027576110266114a8565b5b02179055506110346111b3565b50565b600080600481111561104c5761104b6114a8565b5b60008054906101000a900460ff16600481111561106c5761106b6114a8565b5b146110ac576040517f08c379a00000000000000000000000000000000000000000000000000000000081526004016110a39061183f565b60405180910390fd5b6002543410156110f1576040517f08c379a00000000000000000000000000000000000000000000000000000000081526004016110e890611a87565b60405180910390fd5b60026000806101000a81548160ff02191690836004811115611116576111156114a8565b5b021790555060405180604001604052803373ffffffffffffffffffffffffffffffffffffffff16815260200183815250600860008201518160000160006101000a81548173ffffffffffffffffffffffffffffffffffffffff021916908373ffffffffffffffffffffffffffffffffffffffff16021790555060208201518160010190805190602001906111ab929190611221565b509050505050565b600860000160009054906101000a900473ffffffffffffffffffffffffffffffffffffffff1673ffffffffffffffffffffffffffffffffffffffff166108fc479081150290604051600060405180830381858888f1935050505015801561121e573d6000803e3d6000fd5b50565b82805461122d90611775565b90600052602060002090601f01602090048101928261124f5760008555611296565b82601f1061126857805160ff1916838001178555611296565b82800160010185558215611296579182015b8281111561129557825182559160200191906001019061127a565b5b5090506112a391906112a7565b5090565b5b808211156112c05760008160009055506001016112a8565b5090565b600081519050919050565b600082825260208201905092915050565b60005b838110156112fe5780820151818401526020810190506112e3565b8381111561130d576000848401525b50505050565b6000601f19601f8301169050919050565b600061132f826112c4565b61133981856112cf565b93506113498185602086016112e0565b61135281611313565b840191505092915050565b600060ff82169050919050565b6113738161135d565b82525050565b600060a08201905081810360008301526113938188611324565b905081810360208301526113a78187611324565b905081810360408301526113bb8186611324565b905081810360608301526113cf8185611324565b90506113de608083018461136a565b9695505050505050565b600073ffffffffffffffffffffffffffffffffffffffff82169050919050565b6000611413826113e8565b9050919050565b61142381611408565b82525050565b600060208201905061143e600083018461141a565b92915050565b6000604082019050611459600083018561141a565b818103602083015261146b8184611324565b90509392505050565b6000819050919050565b61148781611474565b82525050565b60006020820190506114a2600083018461147e565b92915050565b7f4e487b7100000000000000000000000000000000000000000000000000000000600052602160045260246000fd5b600581106114e8576114e76114a8565b5b50565b60008190506114f9826114d7565b919050565b6000611509826114eb565b9050919050565b611519816114fe565b82525050565b60006020820190506115346000830184611510565b92915050565b6000819050919050565b600061155f61155a611555846113e8565b61153a565b6113e8565b9050919050565b600061157182611544565b9050919050565b600061158382611566565b9050919050565b61159381611578565b82525050565b60006020820190506115ae600083018461158a565b92915050565b6000604051905090565b600080fd5b600080fd5b600080fd5b600080fd5b7f4e487b7100000000000000000000000000000000000000000000000000000000600052604160045260246000fd5b61160a82611313565b810181811067ffffffffffffffff82111715611629576116286115d2565b5b80604052505050565b600061163c6115b4565b90506116488282611601565b919050565b600067ffffffffffffffff821115611668576116676115d2565b5b61167182611313565b9050602081019050919050565b82818337600083830152505050565b60006116a061169b8461164d565b611632565b9050828152602081018484840111156116bc576116bb6115cd565b5b6116c784828561167e565b509392505050565b600082601f8301126116e4576116e36115c8565b5b81356116f484826020860161168d565b91505092915050565b600060208284031215611713576117126115be565b5b600082013567ffffffffffffffff811115611731576117306115c3565b5b61173d848285016116cf565b91505092915050565b7f4e487b7100000000000000000000000000000000000000000000000000000000600052602260045260246000fd5b6000600282049050600182168061178d57607f821691505b602082108114156117a1576117a0611746565b5b50919050565b7f4c697374696e673a2074686520636f6e747261637420697320696e207468652060008201527f77726f6e6720737461746520666f7220746869732066756e6374696f6e20746f60208201527f2062652063616c6c656400000000000000000000000000000000000000000000604082015250565b6000611829604a836112cf565b9150611834826117a7565b606082019050919050565b600060208201905081810360008301526118588161181c565b9050919050565b7f4c697374696e673a206f6e6c79207468652073656c6c65722063616e2063616c60008201527f6c20746869732066756e6374696f6e0000000000000000000000000000000000602082015250565b60006118bb602f836112cf565b91506118c68261185f565b604082019050919050565b600060208201905081810360008301526118ea816118ae565b9050919050565b7f4c697374696e673a206f6e6c79207468652062757965722063616e2063616c6c60008201527f20746869732066756e6374696f6e2c20616e64206e6f6e652069732073657400602082015250565b600061194d603f836112cf565b9150611958826118f1565b604082019050919050565b6000602082019050818103600083015261197c81611940565b9050919050565b7f4c697374696e673a206f6e6c79207468652062757965722063616e2063616c6c60008201527f20746869732066756e6374696f6e000000000000000000000000000000000000602082015250565b60006119df602e836112cf565b91506119ea82611983565b604082019050919050565b60006020820190508181036000830152611a0e816119d2565b9050919050565b7f4c697374696e673a20796f7520646964206e6f74206d65657420746865206d6960008201527f6e696d756d207072696365000000000000000000000000000000000000000000602082015250565b6000611a71602b836112cf565b9150611a7c82611a15565b604082019050919050565b60006020820190508181036000830152611aa081611a64565b905091905056fea264697066735822122014ae8bb00d0e96d0247f8beb0b6884d686cd7a115132ad4c0621483e4f5e69ed64736f6c634300080b0033a2646970667358221220b5a8aadd8e64725a019dfb89314a1988c3915b34ed8225ece4e98f7e7fb2252564736f6c634300080b0033",
  "immutableReferences": {},
  "source": "// SPDX-License-Identifier: MIT\npragma solidity >=0.4.22 <0.9.0;\nimport \"./Listing.sol\";\ncontract ListingFactory {\n  event ListedBook(address listing, address seller, uint price, string title, string author);\n\n  Listing[] public listed;\n  mapping(address => Listing[]) public sellerToListings;\n  constructor() {\n  }\n\n  function listBook(\n    uint _price, \n    string memory _title,\n    string memory _author,\n    string memory _isbn,\n    string memory _description,\n    uint8 _condition\n  ) public {\n\n    Listing listing = new Listing(\n      this,\n      payable(msg.sender),\n      _price, \n      _title, \n      _author, \n      _isbn, \n      _description,\n       _condition\n    );\n\n    listed.push(listing);\n    sellerToListings[msg.sender].push(listing);\n\n    emit ListedBook(address(listing), msg.sender, _price, _title, _author);\n  }\n}",
  "sourcePath": "/Users/joshuamartin/22/banned_bookstore/evm/contracts/ListingFactory.sol",
  "compiler": {
    "name": "solc",
    "version": "0.8.11+commit.d7f03943.Emscripten.clang"
  },
  "schemaVersion": "3.4.4",
  "updatedAt": "2022-07-02T00:06:13.183Z",
  "networkType": "ethereum",
  "devdoc": {
    "kind": "dev",
    "methods": {},
    "version": 1
  },
  "userdoc": {
    "kind": "user",
    "methods": {},
    "version": 1
  }
}